:020000040800F2
:10000000A8360020010100083F1E0008871B0008D9
:100010003D1E000891010008192C00080000000096
:100020000000000000000000000000009124000813
:10003000CB01000800000000611E000893240008A6
:100040001B0100081B0100081B0100081B01000820
:100050001B0100081B0100081B0100081B01000810
:100060001B0100081B0100081B0100081B01000800
:100070001B0100081B0100081B0100081B010008F0
:100080001B010008950100081B0100081B01000866
:100090001B0100081B0100081B0100081B010008D0
:1000A0001B0100081B0100081B0100081B010008C0
:1000B0001B0100081B010008692500081B0100083E
:1000C0001B0100081B0100081B0100081B010008A0
:1000D0001B010008F92B00081B0100081B01000888
:1000E0001B0100081B0100081B010008DFF80CD0F1
:1000F00000F03CF800480047B12F0008A836002067
:100100000648804706480047FEE7FEE7FEE7FEE7B1
:10011000FEE7FEE7FEE7FEE7FEE7FEE72125000833
:10012000ED00000840EA01039B0703D009E008C97D
:10013000121F08C0042AFAD203E011F8013B00F8AC
:10014000013B521EF9D27047D2B201E000F8012BF8
:10015000491EFBD270470022F6E710B513460A4647
:1001600004461946FFF7F0FF204610BD064C074D28
:1001700006E0E06840F0010394E807009847103477
:10018000AC42F6D3FFF7B6FFE432000804330008B0
:10019000FEE70000014800F065B80000E400002020
:1001A00030B590F840500124AC40C56B6C600468D9
:1001B00063604368102B036803D099600068C260D5
:1001C00030BD9A600068C16030BD704710B590F8CE
:1001D00021100024022903D00421816301243DE081
:1001E00001680A6822F00E020A6001680A6822F0BB
:1001F00001020A601A4A0168914201D1012121E0FD
:10020000174A1432914201D110211BE0144A2832BE
:10021000914201D1891515E0114A3C32914201D138
:1002200089140FE00E4A5032914202D14FF48031CE
:1002300008E00B4A6432914202D14FF4801101E090
:100240004FF08071064A083A5160012180F8211070
:10025000002180F82010416B01B18847204610BD75
:10026000080002402DE9F05FC16B0C6801680B6863
:10027000D0F840C0042202FA0CF2494DDFF824A164
:10028000494E4A4FDFF828B1DFF828E122422CD04E
:100290005A072AD50A68920603D40A6822F0040293
:1002A0000A600168A94201D1042219E0514501D137
:1002B000402215E0B14202D14FF4806210E0B94211
:1002C00002D14FF480420BE0594502D14FF4802215
:1002D00006E0714502D14FF4800201E04FF08062E8
:1002E0002F4908394A60C16A3BE04FF0020808FA1A
:1002F0000CF818EA040F4FF000094FF0010235D056
:100300005FEA837832D50B689B0605D40B6823F02F
:100310000A030B6080F821200168A94201D1022262
:1003200019E0514501D1202215E0B14202D14FF42C
:10033000007210E0B94202D14FF400520BE059456F
:1003400002D14FF4003206E0714502D14FF40012A1
:1003500001E04FF00072124908394A6080F820909D
:10036000816A00291AD0BDE8F05F0847082505FA20
:100370000CF5254212D01B0710D50B6823F00E0395
:100380000B6090F84010C36B02FA01F15960826370
:1003900080F8212080F82090016BE2E7BDE8F09F13
:1003A000080002401C0002403000024044000240AD
:1003B000580002406C00024030B548B308C81549E7
:1003C00014221944B1FBF2F18900C163124981631F
:1003D000022141771A6843F6F0718A43D0E900148C
:1003E0002143D0E902452C43214304692143446958
:1003F00021438469214311431960002141628162D4
:10040000C16201634163012242770177084630BD32
:10041000012030BDF8FFFDBF0000024070B504466A
:1004200090F82000002501280CD0012084F820003D
:1004300094F821600020012E06D084F820000225C7
:10044000284670BD022070BD022684F82160A0639A
:100450002068066826F0010606602046FFF7A0FE29
:10046000E06A00282068016802D041F00E0106E031
:1004700021F0040101602068016841F00A01016077
:100480002068016841F001010160D9E770B50446B8
:1004900000F0FAF80546601C02D0044800780444D5
:1004A00000F0F2F8401BA042FAD370BD38000020E3
:1004B0002DE9F84FDFF890A100220AF1040B144651
:1004C00001274FF00F090BF1040E00BF0B6807FA6C
:1004D00004F52B40AB4274D1DFF870C14E68A6EB37
:1004E0000C0866452BD00DDC032E34D005DC36B36A
:1004F000012E19D0022E2FD11BE0112E16D0122E54
:100500002AD119E0B8F5881F19D006DCB8F5803F6C
:1005100015D0B8F5801F1FD111E0B8F5001F0ED01F
:10052000B8F5041F18D10AE0CA6815E0CA68121DA0
:1005300012E0CA6808320FE0CA680C320CE08A6820
:100540002AB1012A4FF0080203D0456104E00422D9
:1005500002E0056100E00022FF2B01D8064601E021
:1005600000F104064FEA840501D9A5F12005D6F86B
:1005700000C009FA05F82CEA080C02FA05F54CEA65
:10058000050CC6F800C04D68ED0057D5304DAE697A
:1005900046F00106AE61AD6924F0030605F00105E1
:1005A00000952C4D06EB050CDCF80850A6074FEA29
:1005B000167809FA08F6B543274EB04202D1002654
:1005C00010E03BE0254EB04201D101260AE0244E66
:1005D000B04201D1022605E0224EB04201D10326ED
:1005E00000E0042606FA08F62E43CCF808604D68B1
:1005F000DAF80060ED03554601D51E4300E09E4346
:100600002E604D68DBF80060AD035D4601D51E43EA
:1006100000E09E432E604D68DEF80060ED027546F6
:1006200001D51E4300E09E432E604D68AD020E4D85
:100630002E6801D51E4300E09E432E60641C102CE2
:10064000FFF444AFBDE8F88F000401400000111032
:10065000001002400000014000080140000C014071
:1006600000100140001401400C0401408068084063
:1006700000D001207047C2684A40C26070470AB18A
:10068000016170470904FBE701488068704700007A
:100690003800002002488168027811448160704768
:1006A00038000020074810B5016841F010010160D2
:1006B000032000F09DF8002000F006F800F024F878
:1006C000002010BD0020024070B50D4D04464FF4CF
:1006D0007A712878B1FBF0F00A490968B1FBF0F0B3
:1006E00000F0E0FD48B9102C07D200222146501E30
:1006F00000F05EF800206C6070BD012070BD00004D
:100700003800002044000020214808B5816941F0EC
:1007100001018161816901F001010091C16941F02C
:100720008051C161C06900F080500090032000F04A
:100730005FF8002211466FF00B0000F039F800223C
:1007400011466FF00A0000F033F8002211466FF0F6
:10075000090000F02DF800221146501F00F028F883
:1007600000221146101F00F023F800221146901EAF
:1007700000F01EF800221146501E00F019F805483E
:10078000416821F0E06141F00071416008BD000066
:10079000001002400000014000F01F0201219140C2
:1007A0004009800000F1E020C0F80011704700000F
:1007B000F0B40E4B1B680C46C3F30223C3F10705CC
:1007C000042D00D90425191D072901D2002300E0BA
:1007D000DB1E012606FA05F1491E214099409E4084
:1007E000761E16403143F0BC01F02ABB0CED00E050
:1007F000064900F0070208684FF6FF03184040EA78
:100800000220034A10430860704700000CED00E02E
:100810000000FA05014901200862704700000E42FD
:1008200010B529A401461DCC86B08DE81D002AA074
:100830002A4C006804900020012923D002293AD0D4
:1008400010291DD161682268D20119D5C1F38342F4
:10085000C9031DF8020009D5616804AAC1F340412B
:10086000515C1F4AB2FBF1F1484301E01D49484386
:100870006168490204D440005FF00301B0FBF1F06D
:1008800006B010BD226AC2F30121012903D19207EB
:1008900001D5C803F4E7022905D1626A920702D59F
:1008A00049F64040ECE70329EAD121688903E7D5FE
:1008B0004FF22440E4E700F04DF96168C1F3813163
:1008C000491C4900DAE7000002030405060708098D
:1008D0000A0B0C0D0E0F1010010200000010024058
:1008E00000127A0000093D002DE9F8430546007822
:1008F000354CC00754D0E0690026C00008D4E06938
:1009000040F08050E061E069012600F080500090E6
:100910002E480168C90512D40168804641F48071EF
:100920000160FFF7B1FE074605E000BFFFF7ACFE30
:10093000C01B642823D8D8F80000C005F6D5206A6B
:1009400010F4407021D0A98801F4407181421CD07C
:10095000206A1F49012220F440700A6000220A60C8
:100960002062C00711D0FFF78FFE074641F288389A
:1009700008E000BFFFF788FEC11B414502D90320F4
:10098000BDE8F883206A8007F4D5206A696820F4FE
:100990004070084320621EB1E06920F08050E061A1
:1009A0002878800705D56068A96820F4404008438E
:1009B00060602878C00605D56068E96820F480008A
:1009C000084360600020DBE7001002400070004038
:1009D000400442422DE9F047DFF83C8105460E46CF
:1009E000D8F8000000F00700B0420CD2D8F8001090
:1009F00021F007013143C8F80010D8F8000000F0DA
:100A00000700B04263D12878444C800705D5606860
:100A1000A96820F0F000084360602878C00745D03E
:100A20006868012816D02168022816D08907002995
:100A30004DDA616821F0030101436160FFF724FE94
:100A40006968074641F2883001290FD002298146A2
:100A500019D027E021688903E9E78901E7E700BFAA
:100A6000FFF712FEC11B494501D918E081466068B5
:100A7000C0F381000128F3D118E000BFFFF704FEA6
:100A8000C11B49450BD86068C0F381000228F5D12D
:100A90000CE000BFFFF7F8FDC11B494502D9032058
:100AA000BDE8F087606810F00C0FF3D1D8F80010A3
:100AB000404601F00701B1420BD9016821F007015E
:100AC00031430160006800F00700B04201D001200E
:100AD000E6E72878400705D56068E96820F4E0601B
:100AE000084360602878000706D56068296920F40B
:100AF000605040EAC100606000F03CF86168084A5C
:100B0000C1F30311515CC840064908600020FFF79B
:100B1000DBFD0020C4E7000000200240001002407E
:100B2000CC320008440000200148006870470000F3
:100B3000440000200448054900684968044AC1F39C
:100B40000221515CC8407047440000200010024060
:100B5000DC3200080448054900684968044AC1F3CA
:100B6000C221515CC8407047440000200010024080
:100B7000DC32000812A185B00FC98DE80F0014A067
:100B8000144A006804905168134801F00C03042BC8
:100B900010D0082B0ED1C1F38343C9031DF8030005
:100BA0000AD5516804AAC1F34041515C0A4A504336
:100BB000B0FBF1F005B0704708494843FAE7000080
:100BC00002030405060708090A0B0C0D0E0F10108E
:100BD000010200000010024000127A0000093D00EE
:100BE0002DE9F84F04460078B94DC00748D0686831
:100BF000C0F38100012807D06868C0F38100022893
:100C000009D16868C00306D52868800338D56068B4
:100C100000286FD034E06068B0F5803F0BD010B191
:100C2000B0F5A02F11D0286820F480302860286803
:100C300020F4802002E0286840F48030286060685A
:100C400088B1FFF721FD064609E0286840F48020BE
:100C50002860F0E7FFF718FD801B642875D8286826
:100C60008003F7D50CE0FFF70FFD064605E000BF57
:100C7000FFF70AFD801B6428F0D828688003F7D4AA
:100C80002078944E80074FF001094FF000083BD5C3
:100C9000686810F00C0F07D06868C0F38100022864
:100CA00009D16868C00306D42868800714D5206974
:100CB00001281FD110E02069B0B1C6F80090FFF7FD
:100CC000E3FC074605E000BFFFF7DEFCC01B02287F
:100CD000C4D828688007F7D52868616920F0F80033
:100CE00040EAC10028600FE0C6F80080FFF7CCFCA6
:100CF000074606E0E9E000BFFFF7C6FCC01B02287C
:100D000023D828688007F7D4207800072CD57248AC
:100D1000A169D9B1C0F80090FFF7B6FC074604E01E
:100D2000FFF7B2FCC01B02280FD8686A8007F7D50E
:100D30006A484FF4FA510068B0FBF1F0009000BF30
:100D40000098411E0091FAD20EE080E0C0F80080C9
:100D5000FFF79AFC074604E0FFF796FCC01B022849
:100D600075D8686A8007F7D42078400760D5E869AD
:100D70000027C00008D4E86940F08050E861E869C5
:100D8000012700F08050009055480168C90513D430
:100D90000168834641F480710160FFF775FC82466B
:100DA00006E000BFFFF770FCA0EB0A0064284ED8F5
:100DB000DBF80000C005F5D5E06801280AD008B1CD
:100DC000052813D0286A20F001002862286A20F044
:100DD000040002E0286A40F001002862E06841F265
:100DE000883B98B1FFF750FC82460BE0286A40F040
:100DF00004002862EEE700BFFFF746FCA0EB0A0103
:100E000059455AD8286A8007F6D50CE0FFF73CFC14
:100E1000824605E0FFF738FCA0EB0A0159454CD8A3
:100E2000286A8007F6D41FB1E86920F08050E86195
:100E3000E06988B36968C1F38101022945D00228BD
:100E4000C6F8608004D0FFF71FFC044638E034E0A9
:100E5000FFF71AFC074604E0FFF716FCC01B022848
:100E60002BD828688001F7D4206AB0F5803F05D1DF
:100E70006868A16820F4003008436860D4E908017C
:100E80000843696821F4741108436860C6F86090EB
:100E9000FFF7FAFB044606E015E000BFFFF7F4FB9E
:100EA000001B022809D828688001F7D50BE000BF95
:100EB000FFF7EAFB001B022802D90320BDE8F88FE8
:100EC00028688001F4D40020F8E70120F6E700004C
:100ED00000100240000042428004424244000020D0
:100EE00000700040F8B505004FF0000016460C46B3
:100EF000009006D02CB100226946284600F019F86F
:100F000008B10120F8BD287B2070E87BE070697B88
:100F10006170A97BA17056B100F0ACFFE070607801
:100F200000F0A8FF6070A07800F0A4FFA07000207F
:100F3000F8BD2DE9F04791460C465FEA00084AD01B
:100F400084B3D8F800004068400744D4404601F01C
:100F50002FF84FF461620546B0FBF2F1B0FBF2F3FB
:100F600002FB13503C23B0FBF3F0B5FBF2F66070CC
:100F700002FB1650B0FBF3F203FB1200A07018291D
:100F800031D31820B1FBF0F7B1FBF0F200FB1210E7
:100F90002070404601F005F8411C04D0A84202D957
:100FA000461B02E017E04FF0FF36A7EB071000EBFF
:100FB0004000C0EB001005EBC0152946404601F08B
:100FC00046F840B9701C01D0711900E03146404626
:100FD00001F029F810B10120BDE8F08739464046FC
:100FE00000F053FF00E02170B9F1000F0BD0207822
:100FF00000F040FF2070607800F03CFF6070A07847
:1010000000F038FFA0700020E6E7000070B5040093
:1010100003D0607C002610B105E0012070BD26746D
:10102000204600F043F802206074204600F010F9DA
:10103000042578BB204600F07FFF58BB206841683C
:1010400021F007014160A06820B11748016821F034
:10105000010101601448001F0168A26821F4607159
:10106000114301606068411C04D10120FFF7D8FBE7
:1010700080B1401E21688A6822F00F0242EA1042C5
:101080008A602168CA6860F30F02CA60204600F0D7
:101090006DFF08B16574C0E7E67301206073A0734B
:1010A0006074002070BD0000306C004008B500681E
:1010B000084988420DD1FFF7ADFB0748C16941F0EF
:1010C0000061C161C069054900F000600090012025
:1010D000086008BD00280040001002403C04424265
:1010E0002DE9F0410D4604003BD0C5B3207C01281A
:1010F0003AD04FF0010884F8108002206074E8783C
:1011000072B300F0AEFEE073687800F0AAFE607380
:10111000A87800F0A6FEA073C2B2617BE07B00F06D
:1011200057FF20732870204600F042FF4FF46161A2
:10113000B0FBF1F1002518292DD91822B1FBF2F1ED
:10114000A1EB011101EB4101C1EB011100EBC11653
:101150003146204600F07BFF0427C8B90BE000E0D1
:1011600004E00120BDE8F0810220FBE7E07368782D
:101170006073A878CFE7204600F013FF411C0AD027
:10118000B04208D206490144204600F04CFF10B19D
:1011900067742574E5E784F8118025740020E1E781
:1011A000805101002DE9F0410D46040024D01DB30B
:1011B000207C012823D04FF0010884F81080022001
:1011C00060742878EAB100F04CFE4FF4616100FBD6
:1011D00001F6687800F045FEC0EB001006EB8006D3
:1011E000A87800F03EFE35182946204600F02FFF73
:1011F0000026042710BB0FE00120BDE8F08102208B
:10120000FBE74FF4616148436978C1EB011100EBE2
:101210008100A9784518E7E72068416821F00501B9
:101220004160204600F0BDFE411C0AD0A84208D211
:1012300006490144204600F0F6FE10B1677426749A
:10124000DAE784F8118026740020D6E78051010087
:1012500070B504000AD02068416821F0080141609F
:10126000FFF712FA05464FF47A7608E0012070BDC8
:10127000FFF70AFA401BB04201D9032070BD206875
:1012800040680007F4D5002070BD4FF0E02104282D
:10129000086903D020F004000861704740F00400A2
:1012A000FAE7704710B5401EB0F1807F01D30120EE
:1012B00010BD4FF0E02460610F21601700F0C0FD09
:1012C0000020A06107202061002010BD10B5FFF7AD
:1012D000E8FF10BD7047704730B590F83C20012AF8
:1012E00020D0012280F83C20022380F83D300368A2
:1012F0005C6824F070045C6003685C680D682C43D3
:101300005C6003689C6824F080049C6003689C68AF
:1013100049680C439C6080F83D20002180F83C1017
:10132000084630BD022030BD10B5040003D094F84B
:101330003D0010B107E0012010BD002084F83C0002
:10134000204600F00DF8022084F83D00211D2068A1
:1013500001F060F9012084F83D00002010BD00007C
:1013600008B500680B49884212D10B48C16941F0A9
:101370000401C161C069052200F00400009011461B
:101380001E20FFF715FABDE808401E20FFF704BA3B
:1013900008BD00000008004000100240022180F853
:1013A0003D1001680A6842F001020A60012180F8DC
:1013B0003D10002070470168CA6842F00102CA600F
:1013C0000068016841F0010101600020704770472A
:1013D000704770B50446006801694FF00005C943C5
:1013E000890715D4C168C943890711D4E91E016171
:1013F00001202077206880698007204602D0FFF70F
:10140000E7FF04E000F0AAF8204600F065F9257730
:1014100020680169C943490717D4C168C94349070E
:1014200013D46FF0040101610220207720688069E5
:1014300010F4407F204602D0FFF7CAFF04E000F01E
:101440008DF8204600F048F9257720680169C943E6
:10145000090716D4C168C943090712D46FF00801FF
:101460000161042020772068C0698007204602D0EF
:10147000FFF7AEFF04E000F071F8204600F02CF911
:10148000257720680169C943C90617D4C168C943D3
:10149000C90613D46FF0100101610820207720687D
:1014A000C06910F4407F204602D0FFF791FF04E0AE
:1014B00000F054F8204600F00FF925772068016904
:1014C000C943C90708D1C168C943C90704D1891EE6
:1014D0000161204600F074F920680169C9430906DA
:1014E00009D4C168C943090605D46FF080010161C0
:1014F0002046FFF7EFFE20680169C943490609D479
:10150000C168C943490605D46FF040010161204616
:1015100000F078F920680169C94389060BD4C168D5
:10152000C943890607D46FF0200101612046BDE858
:101530007040FFF7D0BE70BD1FB50068B0F1804F9E
:1015400008D10220009001900320039069460248D0
:10155000FEF7AEFF1FBD000000080140704770B5E8
:10156000044690F83C000D4601280DD0012684F871
:101570003C60022084F83D0042B1042A18D0082AB9
:101580002AD00C2A4DD139E0022070BD206801F02C
:10159000B3F82068816941F00801816120688169A0
:1015A00021F004018161206881692A69114311E0F9
:1015B000206801F0C9F82068816941F40061816107
:1015C0002068816921F480618161206881692A69CC
:1015D00041EA0221816124E0206801F0E1F82068FD
:1015E000C16941F00801C1612068C16921F00401AD
:1015F000C1612068C1692A69114311E0206801F0C6
:10160000FBF82068C16941F40061C1612068C169CB
:1016100021F48061C1612068C1692A6941EA02211F
:10162000C16184F83D60002084F83C0070BD10B5B5
:10163000040003D094F83D0010B107E0012010BD74
:10164000002084F83C00204600F00CF8022084F8CA
:101650003D00211D206800F0DDFF012084F83D00E1
:10166000002010BD38B505460068B0F1804F24D188
:101670001248C16941F00101C161C069114C00F01B
:10168000010000900E482060102060600020802142
:10169000C4E902014900C4E904102020A0614FF40C
:1016A0004050E0612046FEF787FE18B1912106A068
:1016B00001F0B3FAAC622C63656238BD00100240E1
:1016C00080000240E40000202E2E2F5372632F74FE
:1016D000696D2E63000000007047000070B504467D
:1016E00090F83D0016460D46022805D094F83D00BE
:1016F000012805D10EB903B170BD022084F83D0068
:101700002C482D4935B1042D13D0082D34D00C2D83
:101710001ED140E0626A9062606A016322683146CD
:101720003432606AFEF77AFE2068C16841F40071C5
:101730000DE0A26A9062A06A0163226831463832E5
:10174000A06AFEF76BFE2068C16841F48061C16049
:1017500001222946206800F093FF1849206888423A
:1017600003D1416C41F4004141642068016841F0BB
:1017700001010160002070BDE26A9062E06A0163CD
:10178000226831463C32E06AFEF748FE2068C168B4
:1017900041F40061DBE7226B9062206B01632268F9
:1017A00031464032206BFEF739FE2068C16841F4B3
:1017B0008051CCE797260008D5260008002C014070
:1017C000704770B5044690F83C00012818D00125F8
:1017D00084F83C50022084F83D00204601F02EF8A9
:1017E0002068C16821F04001C1602068C16821F40F
:1017F0008041C16084F83D50002084F83C0070BDF9
:10180000022070BD7047704770B5026804461068CA
:10181000D168536910F00F0F50D003F0010501F4A7
:10182000907635435DD0C20705D0CA0503D5E26B7B
:1018300042F00102E263420705D5DA0703D0E26B0A
:1018400042F00202E263820705D5DA0703D0E26BB9
:1018500042F00402E263020705D5DA0703D0E26B27
:1018600042F00802E263E26B002A33D0800604D51E
:10187000880602D5204601F058F820684069E16BDF
:10188000C0F38010090700D428B3204601F03FF8C8
:101890002068416949061AD5416921F0400141613A
:1018A000606BA0B11B494163606BFEF78FFC0028A1
:1018B00010D0606B416BBDE870400847830610D5BF
:1018C0008B060ED52046BDE8704001F02EB82046AC
:1018D000FFF799FF70BD2046FFF795FF0020E063FA
:1018E00070BD030606D50B0604D52046BDE8704042
:1018F00001F01EB94006F3D54806F1D5D16820465F
:1019000021F04001D160202184F8391000F03AF92B
:1019100070BD0000FF28000870B5040004D094F8E2
:101920003900002510B106E0012070BD84F8385060
:10193000204600F023F8242084F839002068C1688C
:1019400021F40051C160204601F03AF82068016995
:1019500021F4904101612068416921F02A0141612F
:101960002068C16841F40051C160E563202084F81B
:10197000390084F83A00002070BD000010B50068FE
:10198000154986B0884225D11448816941F48041C7
:1019900081618069124C00F4804004904FF4007023
:1019A0000090022001900320039069462046FEF734
:1019B0007FFD00212015CDE90001029169462046F6
:1019C000FEF776FD002211462520FEF7F1FE2520C8
:1019D000FEF7E2FE06B010BD0038014000100240E4
:1019E0000008014090F83A30202B22D1F9B1F2B131
:1019F00090F83830012B1CD081628285C28500218D
:101A0000C163222280F83A2080F838100168CA6841
:101A100042F48072CA6001684A6942F001024A6178
:101A20000068C16841F02001C160002070470120BA
:101A3000704702207047000010B5114C11496078C2
:101A4000A2780A54401CC0B26070084410F8011C0F
:101A50000A2903D110F8020C0D2801D03E2A01D129
:101A600000F00AFB6078142801D30020607004495C
:101A70000122BDE81040891C0348FFF7B3BF0000F6
:101A80000400002068010020280100202DE9F8430F
:101A9000044690F839001F4616460D46202850D1BE
:101AA000A5B19EB194F8380001284AD0012084F8ED
:101AB00038004FF00008C4F83C80212084F8390039
:101AC000FEF7E2FDA6848146E68426E00120BDE81B
:101AD000F883E08C401EE084A0684B46B0F5805F40
:101AE0004FF000024FF080012046009703D001F034
:101AF00050F8E8B90DE001F04CF8C8B92888216821
:101B0000C0F308004860206908B16D1C05E0AD1CF9
:101B100003E0216815F8010B4860E08C0028D8D15B
:101B20004B46002240212046009701F032F808B1D0
:101B30000320CCE7202084F8390084F83880002086
:101B4000C5E70220C3E790F83930202B18D1A9B19E
:101B5000A2B190F83830012B12D001628284C28485
:101B60000021C163212280F8392080F838100068F4
:101B7000C16841F08001C1600020704701207047BA
:101B8000022070477047FEE7094808B5416941F0F7
:101B9000010141614069002200F001000090012133
:101BA0001120FEF705FEBDE808401120FEF7F4BD48
:101BB000001002402DE9F0432B4885B0816941F0C7
:101BC00010018161816901F010010491816941F086
:101BD00020018161816901F020010491816941F056
:101BE00004018161816901F004010491816941F07E
:101BF000080181618069DFF8748000F008004FF40B
:101C000000540490002221464046FEF738FDDFF8DC
:101C100060906711002239464846FEF730FD0125E5
:101C200000268DE870000224694640460394FEF7C2
:101C30003FFCCDE90264CDE9007569464846FEF7F0
:101C400037FC0C4F4FF44056002231463846FEF721
:101C500016FD0096CDE90154694638460394FEF717
:101C600027FC05B0BDE8F0830010024000100140E1
:101C700000080140000C01401CB51B481949002414
:101C800001604FF0FF31C0E90114FFF7BFF918B14F
:101C90003E2116A000F0C1FF8DF804408DF80540EC
:101CA0008DF80640012201A90F48FFF77BFA18B111
:101CB0004C210EA000F0B1FF01208DF800008DF83E
:101CC00001008DF8020002468DF80340694606487F
:101CD000FFF706FA002803D0592104A000F09DFF69
:101CE0001CBD000000280040500000202E2E2F5365
:101CF00072632F7274632E630000000010B51948E0
:101D00008AB04FF08041016002210024C0E9011433
:101D10001F21C0E903148461FFF789FC18B1432136
:101D200011A000F07AFF079407A90E480894FFF766
:101D3000D3FA18B14A210CA000F06FFF6020CDE962
:101D4000000402940422694606480494FFF707FC45
:101D500018B1532104A000F060FF0248FFF7ECFB2C
:101D60000AB010BD640000202E2E2F5372632F7412
:101D7000696D2E630000000010B5184888B0164940
:101D8000016048F6A0410024C0E901144FF4C87175
:101D9000C0E903148461FFF7C7FA18B1672110A0E6
:101DA00000F03BFF009469460C480194FFF709FDE1
:101DB00018B16E210AA000F030FF2020CDE9050403
:101DC00005A90648FFF788FA002803D0752104A06A
:101DD00000F023FF08B010BD00080040A400002060
:101DE0002E2E2F5372632F74696D2E630000000036
:101DF0000D4810B50B4901604FF4E13141600021FD
:101E000081600C22C160C0E904128161C161FFF7E9
:101E100083FD002805D0BDE81040422103A000F05A
:101E2000FCBE10BD00380140280100202E2E2F538B
:101E300072632F75736172742E630000FEE7704742
:101E40000907090E002806DA00F00F0000F1E02073
:101E500080F8141D704700F1E02080F800147047EE
:101E60007047010901EB810100F00F0000EB410018
:101E7000C0B27047002102E00A38C0B2491C0A28EB
:101E8000FAD2090740EA116070472DE9F041044693
:101E90000025C07B627BA37B42E0012A16D0032A87
:101EA00014D0052A12D0072A10D0082A0ED00A2AE8
:101EB0000CD00C2A0AD0042A10D0062A0ED0092AE7
:101EC0000CD00B2A0AD0022A0DD028E01F2B0CD3ED
:101ED0000C2A05D101221346401C20E01E2B04D3FE
:101EE0000123521C1BE01C2B02D203F1010316E05C
:101EF00011D183B29E0710D16426B3FBF6F706FB1F
:101F0000173636B94FF4C876B3FBF6F706FB17332E
:101F10001BB91D2303E01D2B01D1032201236D1CDE
:101F20008D42BAD3D1B2E0736173DAB2A27300F01A
:101F30004FF82073BDE8F08170B50446FEF7A4FBAE
:101F400005464FF47A7606E0FEF79EFB401BB04252
:101F500001D9032070BD206840688006F4D5206850
:101F6000416841F010014160002070BD70B5044629
:101F70000068416821F010014160FEF785FB0546CD
:101F80004FF47A7607E000BFFEF77EFB401BB042BD
:101F900001D9032070BD206840688006F4D5002078
:101FA00070BD0168086A496A89B241EA0040704719
:101FB000006881698AB2C1698BB2816989B28A423B
:101FC00003D0C06961F31F40704743EA0240704785
:101FD000F0B56424C1EBC1030927A500072603EB74
:101FE00001130329B3FBF7F100F5FA601144014432
:101FF0000AD2401EB0FBF4F201EB9001B0FBF5F009
:10200000891A0844001D08E0B0FBF4F201EB9001CE
:10201000B0FBF5F0891A0844801CB0FBF6F106FB12
:102020001100C0B2F0BD70B50D4606460024FFF7A2
:1020300083FF48B93168280C08623168A8B2486249
:102040003046FFF793FF00B10124204670BD70B504
:102050000D4606460024FFF76FFF48B93168280C8B
:1020600088613168A8B2C8613046FFF77FFF00B1D0
:102070000124204670BD00002DE9F05FFC4D28785A
:102080003E2805D1142205F11401FA48FFF75BFD43
:102090002878F94E2B287DD10027E85D7F1CBFB240
:1020A0003A28FAD1F44AF24CEB5DD21C14344FF0CA
:1020B0000D0A6FF02F084FF0450B02F109014FF0A8
:1020C0000A09522B67D00CDC472B14D004DC412BBF
:1020D0007ED0452BDFD1B8E04A2B7AD04D2BDAD118
:1020E000BDE0532B58D0542B74D0E448582B72D0F9
:1020F0005A2BD0D1A2E113784846B3FBF0F5303526
:102100006570B3FBF0F509FB15333033A3705378DA
:10211000B3FBF0F53035E570B3FBF0F509FB153393
:10212000303323719278B2FBF0F330336371B2FB3A
:10213000F0F300FB13223032A2718A78B2FBF0F385
:102140003033E371B2FBF0F300FB13223032227222
:102150004B78B3FBF0F230326272B3FBF0F200FB6B
:1021600012323032A272CA78B2FBF0F33033E3722B
:10217000B2FBF0F300FB132230322273097801B96D
:102180000721B1FBF0F200FB1211303161734721DE
:1021900021701EE12FE121E1E81943788578303B79
:1021A00003EB830708EB47073D441570C5780779B3
:1021B000303D05EB850508EB45053D4455704579F7
:1021C0004346303D05EB8505877908EB450503E07F
:1021D0009AE093E0BEE022E13D449570C279057A31
:1021E000303A02EB820203EB42022A448A70427ABE
:1021F000857A303A02EB820203EB42022A444A70AB
:10220000C27A057B303A02EB820208EB42022A4492
:10221000CA70407B37280FD03038087096490022AA
:10222000C91C9748FEF7BEFF934900220C31944821
:10223000FEF756FF5320F0E00020EEE78E49112212
:1022400010318C48FFF77FFC1EE13D446878303840
:1022500000F090FF84F800B068786070EEE73D44CD
:10226000A87A297B303800EBC00202EB001001EBAA
:102270008001E87A00EB8002824800EB42021144C0
:10228000CBB2E9796A7A303901EBC10707EB01116A
:1022900002EB8102297AAF7901EB810100EB410168
:1022A0001144CAB22979303901EBC10C0CEB011190
:1022B00007EB81016F7995F803C007EB870700EB07
:1022C000470739446F78C9B2303F07EBC70808EBBE
:1022D00007170CEB870795F802C00CEB8C0C00EB92
:1022E0004C00384480B200F06FFF4D2020706878B9
:1022F0006070A878A070E878E0706AE0E81940782B
:10230000303830704A2088E00C2000F0B5FC0028FE
:1023100071D0B1688160E919B0604A788B78303A41
:1023200002EB820508EB45052B444370CB780D7911
:10233000303B03EB830308EB43022A448270002204
:10234000C2704A7902718A790270C9793039417153
:10235000412062E0E81942788378A2F1300000EB76
:10236000800108EB41001844C7B200215425B06831
:1023700002E08068491CC9B2B94202D20028F8D1F3
:1023800022E008B3257045784946B5FBF1F53035B4
:1023900065704578B5FBF1F709FB17553035A57029
:1023A0008578B5FBF1F53035E5708578B5FBF9F743
:1023B00009FB175130312171017961710178A171E7
:1023C00040793030E07102E084F800B0657022722C
:1023D000637284F812A084F813902FE7E8198178CB
:1023E0004078303800EB800208EB42000844C2B26B
:1023F0000020B16803E047E08968401CC0B2904209
:1024000002D20029F8D107E031B1886890E82C00A9
:1024100081E82C0000F002FC522020700EE7E91940
:102420008A784B78303A0121243BD2B2994082F02D
:10243000010289B2FEF723F95820EEE75A212170F4
:1024400031780546303161704FF48051FEF70EF956
:1024500080F03100A0704FF400512846FEF706F9D5
:1024600080F03100E07000F093FC2071B1E70000D3
:10247000680100202801002004000020000C014019
:1024800050000020F0FDFFFF00207070BDE8F09FBD
:10249000704710B5FEF7FEF8BDE81040FEF716BF16
:1024A00070B594B00124052000250090CDE90254B8
:1024B0004FF48030019002260494CDE907604FF478
:1024C000E01009906846FEF78BFB00B1FEE70F2095
:1024D000CDE90A064FF48060CDE90C5002210AA82C
:1024E0000E95FEF777FA00B1FEE74FF48070CDE964
:1024F0000F400FA8FEF7F8F900B1FEE7FEF714FB56
:102500004FF47A71B0FBF1F0FEF7CCFE0420FEF739
:10251000BCFE00221146501EFEF74AF914B070BDF1
:102520000D48016841F00101016041680B4A11400A
:10253000416001680A4A11400160016821F480216C
:102540000160416821F4FE0141604FF41F01816088
:102550000449C00308607047001002400000FFF803
:10256000FFFFF6FE08ED00E02DE9F04700222549C7
:102570002548FEF7DEFC2349002209312248FEF7F8
:10258000B1FC20480930067806B907261D4F4FF4E4
:102590008058FF1EFD1CDFF874904FF4005ABC6891
:1025A00027E060782978884222D1A078697888422B
:1025B0001ED12079721E01219140084218D0207846
:1025C0003138052814D2DFE800F00305080A1000AE
:1025D000012200E00022414603E0012200E0002247
:1025E00051464846FEF74BF802E0607900F0C2FD24
:1025F000A468387808B1002CD3D1BDE8F04704486E
:10260000FEF7E7BE0700002050000020000C01404C
:10261000A4000020F0B50268164B174C174D4FF080
:102620008047984205D0B84203D0A04201D0A842CA
:1026300003D122F070064A683243984205D0B8426E
:1026400003D0A04201D0A84203D122F44074CA684A
:10265000224322F080044A69224302608A68C262EF
:102660000A688262984201D10969016301214161CE
:10267000F0BD0000002C01400004004000080040B4
:1026800010B50123046A8B409C430462036A8A40AC
:102690001343036210BD10B5446A012184F83D1054
:1026A000626A824201D121770EE0A16A814201D1A2
:1026B000022008E0E16A814201D1042003E0216B9D
:1026C000814201D1082020772046FFF705F800203D
:1026D000207710BD10B5406A012180F83D10FEF74B
:1026E00076FE10BD10B5846842EA032224F47F44CC
:1026F0000A432243826010BD30B5026A22F0010213
:102700000262026A4368846924F073050C682C43F2
:1027100022F002058A682A430A4DA8420BD122F012
:102720000805CA6823F440732A434D6922F0040265
:102730001D438B692B434360846149684163026296
:1027400030BD0000002C014030B5026A22F01002BA
:102750000262026A436884690D6824F4E64444EA2C
:1027600005248D6822F0200242EA05120B4DA84292
:102770000ED1CD6822F0800242EA05124D6923F4A1
:10278000406343EA85038D6922F0400243EA8503F2
:102790004360846149688163026230BD002C01405E
:1027A00030B5026A22F480720262036A4268C46928
:1027B00023F4007324F073050C682C438D6843EAFE
:1027C00005230C4DA8420ED1CD6823F4006343EAE3
:1027D00005234D6922F4405242EA05128D6923F423
:1027E000806342EA05124260C4614968C1630362C2
:1027F00030BD0000002C014030B5026A22F4805246
:102800000262046A4268C3690D6823F4E64343EA3E
:1028100005238D6824F4005444EA0534064DA8428B
:1028200004D14D6922F4804242EA85124260C361BC
:1028300049680164046230BD002C014030B4036873
:102840009A6822F070044A68224322F007040A685A
:1028500022439A604A6812F00F0F1FD11211082A02
:102860001CD2DFE802F01B1B1B1B0B1D23040B6992
:10287000D1E90221006830BCFFF734BF0268136A57
:10288000146A24F00104146202689469096924F04E
:10289000F00444EA011191610068036230BC7047A2
:1028A0000A698968006830BC00F006B80A6989685E
:1028B000006830BC00F011B810B5036A046A24F057
:1028C00001040462846924F0F00444EA021423F051
:1028D0000A020A438461026210BD10B5036A23F044
:1028E000100303628369046A23F4704343EA0232EB
:1028F00024F0A00343EA01118261016210BD10B50A
:10290000406A0021C185C184FEF77DFF10BD0168CA
:10291000CA6822F49072CA6001684A6922F0010212
:102920004A61202180F83A10704710B590F83A10AB
:10293000222901D0022010BD8168B1F5805F11D03D
:102940000169002901681FD0496801F07F03816A8D
:102950004A1C82620B70C18D491E0904090CC18595
:1029600018D02BE00269816A002A0268526805D0FB
:10297000D2B20A80816A491C8162ECE7C2F3080284
:102980000A80816A891CF7E74A68816A4B1C836266
:102990000A70E0E70168CA6822F02002CA60016894
:1029A000CA6822F48072CA6001684A6922F0010292
:1029B0004A61202180F83A10FFF73EF8002010BD50
:1029C0002DE9F041044600680169E26821F44051B4
:1029D000114301612169A0680843616908432168C6
:1029E000CA6841F20C639A430243CA602068416995
:1029F000A26921F44071114341614C49206864256A
:102A0000322688423CD1FEF7A5F800EBC00101EB6D
:102A1000001061688900B0FBF1F7FEF79BF800EB4E
:102A2000C00101EB00106168B0468900B0FBF1F015
:102A3000B0FBF5F06FF01801484307EB800106EB9F
:102A40000110B0FBF5F000F0F006FEF783F800EBA4
:102A5000C00101EB001061688900B0FBF1F0B0FB30
:102A6000F5F006EB0016FEF775F800EBC00101EB80
:102A7000001061688900B0FBF1F7FEF76BF83BE0EE
:102A8000FEF758F800EBC00101EB00106168890007
:102A9000B0FBF1F7FEF74EF800EBC00101EB0010C0
:102AA0006168B0468900B0FBF1F0B0FBF5F06FF063
:102AB0001801484307EB800106EB0110B0FBF5F06D
:102AC00000F0F006FEF736F800EBC00101EB001055
:102AD00061688900B0FBF1F0B0FBF5F006EB001681
:102AE000FEF728F800EBC00101EB001061688900D7
:102AF000B0FBF1F7FEF71EF800EBC00101EB001090
:102B000061688900B0FBF1F0B0FBF5F06FF01801DF
:102B1000484307EB800108EB0110B0FBF5F021689A
:102B200000F00F0030448860BDE8F08100380140BB
:102B300090F83910212901D0022070478168B1F541
:102B4000805F016A0BD04A1C0262026809785160FA
:102B5000C18C491E0904090CC1840ED017E00988F4
:102B60000268C1F30801516001690029016A02D0BD
:102B7000491C0162ECE7891CFBE70168CA6822F086
:102B80008002CA600068C16841F04001C160002055
:102B900070472DE9F041984617460E460446069DBB
:102BA0001DE0681C1BD02DB1FDF76EFDA0EB0800E9
:102BB000A84214D92068C16821F4D071C16020688E
:102BC000416921F001014161202084F8390084F835
:102BD0003A00002084F838000320BDE8F081206826
:102BE000006836EA000004D00020B842D9D00020A6
:102BF000F3E70120F9E7000010B54FF40051044855
:102C0000FDF739FDBDE810400248FEF7FDBD0000AC
:102C10000010014028010020FEE7FEE730B528B192
:102C2000144C031F002021680A4605E0084630BD09
:102C30009A4203D810465268002AF9D1002800D0E1
:102C400041680BD00468A3EB0005A54204D11B68C2
:102C50001C440346046002E0436000E023603AB194
:102C60001C68D51AA54203D115682C441C60526813
:102C70005A6030BD480000202DE9F04782460F4CD5
:102C800010480D4E0E4F001B4FF0000820F00705B6
:102C90004FF0010900221146504600F0F7F80028D5
:102CA00002D1306810B10020BDE8F0873C60C4E973
:102CB0000058C6F80090EDE74C000020AC01002061
:102CC00048000020A831002002E008C8121F08C1F7
:102CD000002AFAD170477047002001E001C1121F9D
:102CE000002AFBD17047000070B50C4C05462078D7
:102CF000401CC0B220708100606800F0F9F960608B
:102D000018B95B2106A0FFF788FF21786FF0030256
:102D1000606802EB8101455070BD0000300000206A
:102D20002E2E5C5372635C6C6564436F6E74726FBD
:102D30006C2E630070B5002104680A460125A35C6F
:102D4000142B04D1C2F1170605FA06F31943521CDD
:102D5000182AF4DB0A0A82710A0CC271017270BD72
:102D600070B5074C05460548A37862780669217856
:102D7000A088B0470520286070BD000090010020A9
:102D80002800002001480078704700003000002033
:102D90000148007870470000000000203EB504465E
:102DA0000020019002900D4801EB4105436803F5B6
:102DB000967200924FF49672806802EBC5028242CE
:102DC00006D898180090ADF804106846FFF7B2FFD7
:102DD0009DE8070084E807003EBD00009001002048
:102DE00070B5411E1A4C00EB40004FF496762180DE
:102DF0001849E160184906EBC00528462161FFF734
:102E00003BFFC4E9010518B92E2114A0FFF705FF07
:102E1000D4E901010A22FDF797F931466068FDF710
:102E20009AF91349002008701248FFF75DFF124815
:102E3000FFF75AFF1148FFF757FF1148FFF754FFFC
:102E40001048FFF751FF1048FFF74EFF004870BDD4
:102E5000900100209D2D0008913100082E2E5C531A
:102E600072635C6C6564436F6E74726F6C2E63008A
:102E700030000020DD2E0008DD310008553200084A
:102E8000452F0008BD300008612D00082DE9F041F4
:102E90000B3020F00706104D19E02068B04215D322
:102EA000B0420AD9871B201DD4F80480FDF73AF9F7
:102EB000A019C0E90078286004E060682860201D3F
:102EC000FDF730F9201D2660BDE8F081251D2C6836
:102ED000002CE2D10020F7E7480000202DE9FE4356
:102EE00080460024164D22E0EA68A1B26846904769
:102EF0000198EA68C0F30747A1B268469047019875
:102F0000EA68060EA1B2684690470298C3B20FB1B4
:102F10007F1EFFB20EB1761EF6B20BB15B1EDBB2A6
:102F2000D5F810C0A0B232463946E047641C288864
:102F3000A042D9DA0121C8F80010BDE8FE830000E4
:102F4000900100202DE9FE4380460024174D25E026
:102F5000EA68A1B2684690470198EA68C0F307475B
:102F6000A1B2684690470198EA68060EA1B2684689
:102F700090470298FF2FC3B201D27F1CFFB2FF2EF1
:102F800001D2761CF6B2FF2B01D25B1CDBB2D5F866
:102F900010C0A0B232463946E047641C2888A042DF
:102FA000D6DA0121C8F80010BDE8FE8390010020A8
:102FB0008CB0FDF777FBFFF773FAFEF7FBFDFEF72A
:102FC000E3FDFEF759FEFEF7D7FEFEF797FEFEF78C
:102FD0000FFF4FF49670FFF703FF04464FF47A7526
:102FE0002846FDF753FA2089042183B223486268FA
:102FF000FEF774FB2248FEF7D1F92148FEF7DBF912
:10300000002000902846FDF741FA1EA30DF1040CA4
:103010000FCB8CE80F000A230D2201A91D48FEF7F3
:1030200035FD2846FDF732FA18221BA105A8FDF749
:1030300079F80A23152205A91648FEF727FD284628
:10304000FDF724FA1A4C012211032046FDF717FB65
:10305000012251032046FDF712FB012215490D48BC
:10306000FEF7C0FC144C207800F078F80146684662
:1030700088470098FDF70AFAF5E700006400002091
:10308000A400002041542B4349504D55583D310D6B
:103090000A0000002801002041542B4349505345A9
:1030A000525645523D312C353535350D0A0000005C
:1030B000000C014006000020000000202DE9F04136
:1030C00007460024084D094E07E0D5F810C0A0B20D
:1030D000B37872783178E047641C2888A042F4DA2B
:1030E00005203860BDE8F081900100202800002014
:1030F0002DE9F04704008A4616D054F8047CD4F831
:1031000000903E1F564500D956462046FFF786FDE3
:1031100005468846324621465046FFF7B7FE40B185
:10312000C0F80090BDE8F087BDE8F0470846FFF71B
:10313000A3BD44E9017955B129686A18211F8A4263
:1031400002D9611B091F2960C5F80480EAE7024A19
:10315000C2F80080E6E700004800002004490A7831
:103160004968B0FBF2F302FB130051F820007047EE
:103170003000002010B50446FFF704FEB4FBF0F168
:1031800000FB11400149087010BD00000000002044
:103190007EB50E4601461C4615466846FFF7FEFD05
:1031A000300240EA054222434FF400010020114260
:1031B00001D0142300E00A23009C49082354401C3A
:1031C0001828F4DB7EBD000010B5034CA0802170F0
:1031D0006270A37010BD0000280000202DE9FE439E
:1031E000804600241A4D29E0EA68A1B2684690475B
:1031F0000198EA68C0F30746A1B268469047019873
:10320000EA68070EA1B2684690470298FF2EC3B243
:1032100001D2761CF6B2332E09D9FF2F01D27F1CC2
:10322000FFB2332F03D9FF2B01D25B1CDBB2D5F8E1
:1032300010C0A0B23A463146E047641C2888A0423C
:10324000D2DA41F27071C8F80010BDE8FE830000C8
:10325000900100202DE9FE43804600241A4D29E00C
:10326000EA68A1B2684690470198EA68C0F3074748
:10327000A1B2684690470198EA68060EA1B2684676
:103280009047029810F0FF0303D05B1EDBB2CC2BFB
:1032900009D20EB1761EF6B2CC2B04D2CC2E02D2BD
:1032A0000FB17F1EFFB2D5F810C0A0B2324639462A
:1032B000E047641C2888A042D2DA41F27071C8F855
:1032C0000010BDE8FE830000900100200000000017
:1032D00000000000010203040607080900000000C6
:1032E0000102030404330008000000205000000025
:1032F000C82C000854330008500000205836000045
:10330000D82C0008000000000000000000000000B1
:10331000000000000000000041542B434950534579
:103320004E443D302C32300D0A00000000000000F9
:10333000000000000000000000000000010000008C
:10334000100000000000000000A24A04000000007D
:043350000000000079
:04000005080000ED02
:00000001FF
